:103E0000F89411248FE594E09EBF8DBF84B714BE53
:103E100081FD02C0B199F5D085E08EBD82E08BB9FD
:103E200088E18AB986E880BD80E189B98EE0D5D085
:103E30008E9A22E080E39CEF54E040E49DBD8CBD6F
:103E400058BF08B602FEFDCF32B3342732BBA89567
:103E50002150A1F788249924DD24D394E5E0EE2EA7
:103E600071E1F72EABD0813489F4A8D08983B9D021
:103E70008981823819F484E09DD099C0813819F481
:103E800084E098D094C083E095D091C0823419F436
:103E900084E1AFD08CC0853419F485E0AAD087C006
:103EA000853569F48BD0082F10E088D090E0982EEB
:103EB0008824802A912A880C991C93D078C0863552
:103EC00029F484E096D080E075D071C0843609F082
:103ED00044C074D073D0C82E71D080E0881688E3B7
:103EE000980638F483E0F40187BFE89500E610E017
:103EF00002C000E610E062D0F80181938F01CA94FD
:103F0000D1F7F0E08F16F8E39F0620F083E0F4018C
:103F100087BFE89566D007B600FCFDCFF401A0E6A8
:103F2000B0E02C9130E011968C91119790E0982F91
:103F30008827822B932B12960C01D7BEE89511246B
:103F40003296A03EB10569F7F401E7BEE89507B6E1
:103F500000FCFDCFF7BEE8952AC08437B9F42ED017
:103F60002DD0B82E2BD03DD0CB2CF40101C0F801C0
:103F70008F010F5F1F4F84911DD0CA94C1F7089421
:103F8000811C911CBA948B0C911C11C0853741F493
:103F900028D08EE10FD084E90DD083E00BD007C08C
:103FA000813521F488E019D01CD001C01AD080E1FD
:103FB00001D058CF5D9BFECF8CB9089582B390E4B9
:103FC000892782BB5F9BFECF5C9901C0A8958CB10D
:103FD00092B320E4922792BB089598E191BD81BDF0
:103FE0000895ECDF803219F088E0F7DFFFCF84E13D
:103FF000E1CF1F93182FE2DF1150E9F7F2DF1F9195
:0C400000089580E0EADFEE27FF27099416
:0400000300003E00BB
:00000001FF
