:107E0000F89411248FE598E09EBF8DBF84B714BE0F
:107E100081FD02C0B199F5D085E08EBD82E08BB9BD
:107E200088E18AB986E880BD80E189B98EE0D5D045
:107E30008E9A22E080E39CEF54E040E49DBD8CBD2F
:107E400058BF08B602FEFDCF32B3342732BBA89527
:107E50002150A1F788249924CC24C394F5E0DF2E87
:107E6000E1E1EE2E73E0F72EA9D0813489F4A6D09B
:107E70008983B7D08981823819F484E09BD097C078
:107E8000813819F484E096D092C083E093D08FC0FB
:107E9000823419F484E1ADD08AC0853419F485E0C8
:107EA000A8D085C0853569F489D0082F10E086D028
:107EB00090E0982E8824802A912A880C991C91D0D1
:107EC00076C0863529F484E094D080E073D06FC00A
:107ED000843609F042C072D071D0B82E6FD080E0E5
:107EE000881680E7980630F4F401F7BEE89500E6BE
:107EF00010E002C000E610E061D0F80181938F012C
:107F0000BA94D1F7F0E08F16F0E79F0618F0F4016D
:107F1000F7BEE89566D007B600FCFDCFF401A0E6F9
:107F2000B0E02C9130E011968C91119790E0982F51
:107F30008827822B932B12960C01C7BEE89511243B
:107F40003296A03EB10569F7F401D7BEE89507B6B1
:107F500000FCFDCFE7BEE8952AC08437B9F42ED0E7
:107F60002DD0A82E2BD03DD0BA2CF40101C0F801A1
:107F70008F010F5F1F4F84911DD0BA94C1F70894F1
:107F8000811C911CAA948A0C911C11C0853741F464
:107F900028D08EE10FD085E90DD082E00BD007C04C
:107FA000813521F488E019D01CD001C01AD080E1BD
:107FB00001D05ACF5D9BFECF8CB9089582B390E477
:107FC000892782BB5F9BFECF5C9901C0A8958CB1CD
:107FD00092B320E4922792BB089598E191BD81BDB0
:107FE0000895ECDF803219F088E0F7DFFFCF84E1FD
:107FF000E1CF1F93182FE2DF1150E9F7F2DF1F9155
:0C800000089580E0EADFEE27FF270994D6
:0400000300007E007B
:00000001FF
